{
  "_format": "hh-sol-artifact-1",
  "contractName": "Dex",
  "sourceName": "contracts/dex.sol",
  "abi": [
    {
      "inputs": [
        {
          "internalType": "address[]",
          "name": "_tokenAddr",
          "type": "address[]"
        }
      ],
      "stateMutability": "nonpayable",
      "type": "constructor"
    },
    {
      "anonymous": false,
      "inputs": [
        {
          "indexed": false,
          "internalType": "address",
          "name": "account",
          "type": "address"
        },
        {
          "indexed": false,
          "internalType": "address",
          "name": "_tokenAddr",
          "type": "address"
        },
        {
          "indexed": false,
          "internalType": "uint256",
          "name": "_cost",
          "type": "uint256"
        },
        {
          "indexed": false,
          "internalType": "uint256",
          "name": "_amount",
          "type": "uint256"
        }
      ],
      "name": "buy",
      "type": "event"
    },
    {
      "anonymous": false,
      "inputs": [
        {
          "indexed": false,
          "internalType": "address",
          "name": "account",
          "type": "address"
        },
        {
          "indexed": false,
          "internalType": "address",
          "name": "_tokenAddr",
          "type": "address"
        },
        {
          "indexed": false,
          "internalType": "uint256",
          "name": "_cost",
          "type": "uint256"
        },
        {
          "indexed": false,
          "internalType": "uint256",
          "name": "_amount",
          "type": "uint256"
        }
      ],
      "name": "sell",
      "type": "event"
    },
    {
      "inputs": [
        {
          "internalType": "address",
          "name": "_tokenAddr",
          "type": "address"
        },
        {
          "internalType": "uint256",
          "name": "_cost",
          "type": "uint256"
        },
        {
          "internalType": "uint256",
          "name": "_amount",
          "type": "uint256"
        }
      ],
      "name": "buyToken",
      "outputs": [],
      "stateMutability": "payable",
      "type": "function"
    },
    {
      "inputs": [
        {
          "internalType": "address",
          "name": "_tokenAddr",
          "type": "address"
        },
        {
          "internalType": "uint256",
          "name": "_cost",
          "type": "uint256"
        },
        {
          "internalType": "uint256",
          "name": "_amount",
          "type": "uint256"
        }
      ],
      "name": "sellToken",
      "outputs": [],
      "stateMutability": "payable",
      "type": "function"
    },
    {
      "inputs": [
        {
          "internalType": "address",
          "name": "",
          "type": "address"
        }
      ],
      "name": "supportedTokenAddr",
      "outputs": [
        {
          "internalType": "bool",
          "name": "",
          "type": "bool"
        }
      ],
      "stateMutability": "view",
      "type": "function"
    }
  ],
  "bytecode": "0x60806040523480156200001157600080fd5b5060405162000f4238038062000f428339818101604052810190620000379190620001b3565b60005b8151811015620000f257600160008084848151811062000083577f4e487b7100000000000000000000000000000000000000000000000000000000600052603260045260246000fd5b602002602001015173ffffffffffffffffffffffffffffffffffffffff1673ffffffffffffffffffffffffffffffffffffffff16815260200190815260200160002060006101000a81548160ff0219169083151502179055508080620000e99062000299565b9150506200003a565b50506200035f565b6000620001116200010b846200022c565b620001f8565b905080838252602082019050828560208602820111156200013157600080fd5b60005b858110156200016557816200014a88826200016f565b84526020840193506020830192505060018101905062000134565b5050509392505050565b600081519050620001808162000345565b92915050565b600082601f8301126200019857600080fd5b8151620001aa848260208601620000fa565b91505092915050565b600060208284031215620001c657600080fd5b600082015167ffffffffffffffff811115620001e157600080fd5b620001ef8482850162000186565b91505092915050565b6000604051905081810181811067ffffffffffffffff8211171562000222576200022162000316565b5b8060405250919050565b600067ffffffffffffffff8211156200024a576200024962000316565b5b602082029050602081019050919050565b600062000268826200026f565b9050919050565b600073ffffffffffffffffffffffffffffffffffffffff82169050919050565b6000819050919050565b6000620002a6826200028f565b91507fffffffffffffffffffffffffffffffffffffffffffffffffffffffffffffffff821415620002dc57620002db620002e7565b5b600182019050919050565b7f4e487b7100000000000000000000000000000000000000000000000000000000600052601160045260246000fd5b7f4e487b7100000000000000000000000000000000000000000000000000000000600052604160045260246000fd5b62000350816200025b565b81146200035c57600080fd5b50565b610bd3806200036f6000396000f3fe6080604052600436106100345760003560e01c8063096db4d6146100395780633e11741f14610076578063e671499b14610092575b600080fd5b34801561004557600080fd5b50610060600480360381019061005b91906106b3565b6100ae565b60405161006d9190610a19565b60405180910390f35b610090600480360381019061008b91906106dc565b6100ce565b005b6100ac60048036038101906100a791906106dc565b6103ee565b005b60006020528060005260406000206000915054906101000a900460ff1681565b826000808273ffffffffffffffffffffffffffffffffffffffff1673ffffffffffffffffffffffffffffffffffffffff16815260200190815260200160002060009054906101000a900460ff1661015a576040517f08c379a000000000000000000000000000000000000000000000000000000000815260040161015190610a34565b60405180910390fd5b6000849050828173ffffffffffffffffffffffffffffffffffffffff166370a08231336040518263ffffffff1660e01b81526004016101999190610959565b60206040518083038186803b1580156101b157600080fd5b505afa1580156101c5573d6000803e3d6000fd5b505050506040513d601f19601f820116820180604052508101906101e99190610754565b101561022a576040517f08c379a000000000000000000000000000000000000000000000000000000000815260040161022190610a74565b60405180910390fd5b8347101561026d576040517f08c379a000000000000000000000000000000000000000000000000000000000815260040161026490610a54565b60405180910390fd5b8073ffffffffffffffffffffffffffffffffffffffff166323b872dd3330866040518463ffffffff1660e01b81526004016102aa93929190610974565b602060405180830381600087803b1580156102c457600080fd5b505af11580156102d8573d6000803e3d6000fd5b505050506040513d601f19601f820116820180604052508101906102fc919061072b565b5060003373ffffffffffffffffffffffffffffffffffffffff168560405161032390610944565b60006040518083038185875af1925050503d8060008114610360576040519150601f19603f3d011682016040523d82523d6000602084013e610365565b606091505b50509050806103a9576040517f08c379a00000000000000000000000000000000000000000000000000000000081526004016103a090610ab4565b60405180910390fd5b7f31de7d15e9e6c3b6f319c842341b735c0f9d7a5d06944314495f952400bd74c0338787876040516103de94939291906109ab565b60405180910390a1505050505050565b826000808273ffffffffffffffffffffffffffffffffffffffff1673ffffffffffffffffffffffffffffffffffffffff16815260200190815260200160002060009054906101000a900460ff1661047a576040517f08c379a000000000000000000000000000000000000000000000000000000000815260040161047190610a34565b60405180910390fd5b6000849050833410156104c2576040517f08c379a00000000000000000000000000000000000000000000000000000000081526004016104b990610ad4565b60405180910390fd5b828173ffffffffffffffffffffffffffffffffffffffff166370a08231306040518263ffffffff1660e01b81526004016104fc9190610959565b60206040518083038186803b15801561051457600080fd5b505afa158015610528573d6000803e3d6000fd5b505050506040513d601f19601f8201168201806040525081019061054c9190610754565b101561058d576040517f08c379a000000000000000000000000000000000000000000000000000000000815260040161058490610a94565b60405180910390fd5b8073ffffffffffffffffffffffffffffffffffffffff1663a9059cbb33856040518363ffffffff1660e01b81526004016105c89291906109f0565b602060405180830381600087803b1580156105e257600080fd5b505af11580156105f6573d6000803e3d6000fd5b505050506040513d601f19601f8201168201806040525081019061061a919061072b565b507fa9d424e2b661a4cf6090e4849fd2d81c17106afa4b26188dcc493a69ea4c2b5e3386868660405161065094939291906109ab565b60405180910390a15050505050565b60008135905061066e81610b58565b92915050565b60008151905061068381610b6f565b92915050565b60008135905061069881610b86565b92915050565b6000815190506106ad81610b86565b92915050565b6000602082840312156106c557600080fd5b60006106d38482850161065f565b91505092915050565b6000806000606084860312156106f157600080fd5b60006106ff8682870161065f565b935050602061071086828701610689565b925050604061072186828701610689565b9150509250925092565b60006020828403121561073d57600080fd5b600061074b84828501610674565b91505092915050565b60006020828403121561076657600080fd5b60006107748482850161069e565b91505092915050565b61078681610b10565b82525050565b61079581610b22565b82525050565b60006107a8601183610aff565b91507f556e737570706f7274656420746f6b656e0000000000000000000000000000006000830152602082019050919050565b60006107e8601e83610aff565b91507f44455820646f6573206e6f74206861766520656e6f7567682066756e647300006000830152602082019050919050565b6000610828601a83610aff565b91507f496e73756666696369656e7420746f6b656e2062616c616e63650000000000006000830152602082019050919050565b6000610868600083610af4565b9150600082019050919050565b6000610882600e83610aff565b91507f546f6b656e20736f6c64206f75740000000000000000000000000000000000006000830152602082019050919050565b60006108c2601383610aff565b91507f455448207472616e73666572206661696c6564000000000000000000000000006000830152602082019050919050565b6000610902601183610aff565b91507f496e73756666696369656e742066756e640000000000000000000000000000006000830152602082019050919050565b61093e81610b4e565b82525050565b600061094f8261085b565b9150819050919050565b600060208201905061096e600083018461077d565b92915050565b6000606082019050610989600083018661077d565b610996602083018561077d565b6109a36040830184610935565b949350505050565b60006080820190506109c0600083018761077d565b6109cd602083018661077d565b6109da6040830185610935565b6109e76060830184610935565b95945050505050565b6000604082019050610a05600083018561077d565b610a126020830184610935565b9392505050565b6000602082019050610a2e600083018461078c565b92915050565b60006020820190508181036000830152610a4d8161079b565b9050919050565b60006020820190508181036000830152610a6d816107db565b9050919050565b60006020820190508181036000830152610a8d8161081b565b9050919050565b60006020820190508181036000830152610aad81610875565b9050919050565b60006020820190508181036000830152610acd816108b5565b9050919050565b60006020820190508181036000830152610aed816108f5565b9050919050565b600081905092915050565b600082825260208201905092915050565b6000610b1b82610b2e565b9050919050565b60008115159050919050565b600073ffffffffffffffffffffffffffffffffffffffff82169050919050565b6000819050919050565b610b6181610b10565b8114610b6c57600080fd5b50565b610b7881610b22565b8114610b8357600080fd5b50565b610b8f81610b4e565b8114610b9a57600080fd5b5056fea264697066735822122086839d3df1feaabf65911b301762baa4cdde9d3e3fc61004d1bb92ab6ddc34f964736f6c63430008000033",
  "linkReferences": {},
  "deployedLinkReferences": {}
}